{
  "address": "0xfc77b24b870229511d4b54628de1af961E51f7A6",
  "abi": [
    {
      "inputs": [
        {
          "internalType": "bytes32",
          "name": "_keyHash",
          "type": "bytes32"
        },
        {
          "internalType": "uint64",
          "name": "subscriptionId",
          "type": "uint64"
        },
        {
          "internalType": "address",
          "name": "_vrfCoordinator",
          "type": "address"
        },
        {
          "internalType": "address",
          "name": "_link",
          "type": "address"
        },
        {
          "internalType": "address",
          "name": "_lotteryData",
          "type": "address"
        }
      ],
      "stateMutability": "nonpayable",
      "type": "constructor"
    },
    {
      "inputs": [
        {
          "internalType": "address",
          "name": "have",
          "type": "address"
        },
        {
          "internalType": "address",
          "name": "want",
          "type": "address"
        }
      ],
      "name": "OnlyCoordinatorCanFulfill",
      "type": "error"
    },
    {
      "inputs": [],
      "name": "alreadyEntered",
      "type": "error"
    },
    {
      "inputs": [],
      "name": "invalidFee",
      "type": "error"
    },
    {
      "inputs": [],
      "name": "invalidValue",
      "type": "error"
    },
    {
      "inputs": [],
      "name": "lotteryEnded",
      "type": "error"
    },
    {
      "inputs": [],
      "name": "lotteryFull",
      "type": "error"
    },
    {
      "inputs": [],
      "name": "lotteryNotActive",
      "type": "error"
    },
    {
      "inputs": [],
      "name": "onlyLotteryManagerAllowed",
      "type": "error"
    },
    {
      "inputs": [],
      "name": "playersNotFound",
      "type": "error"
    },
    {
      "anonymous": false,
      "inputs": [
        {
          "indexed": false,
          "internalType": "uint256",
          "name": "",
          "type": "uint256"
        }
      ],
      "name": "LotteryCreated",
      "type": "event"
    },
    {
      "anonymous": false,
      "inputs": [
        {
          "indexed": false,
          "internalType": "uint256",
          "name": "",
          "type": "uint256"
        },
        {
          "indexed": false,
          "internalType": "address",
          "name": "",
          "type": "address"
        },
        {
          "indexed": false,
          "internalType": "uint256",
          "name": "",
          "type": "uint256"
        }
      ],
      "name": "NewLotteryPlayer",
      "type": "event"
    },
    {
      "anonymous": false,
      "inputs": [
        {
          "indexed": false,
          "internalType": "uint256",
          "name": "",
          "type": "uint256"
        },
        {
          "indexed": false,
          "internalType": "uint256",
          "name": "",
          "type": "uint256"
        }
      ],
      "name": "RandomnessRequested",
      "type": "event"
    },
    {
      "anonymous": false,
      "inputs": [
        {
          "indexed": false,
          "internalType": "uint256",
          "name": "",
          "type": "uint256"
        },
        {
          "indexed": false,
          "internalType": "uint256",
          "name": "",
          "type": "uint256"
        },
        {
          "indexed": false,
          "internalType": "address",
          "name": "",
          "type": "address"
        }
      ],
      "name": "WinnerDeclared",
      "type": "event"
    },
    {
      "inputs": [
        {
          "internalType": "uint256",
          "name": "_lotteryId",
          "type": "uint256"
        }
      ],
      "name": "enterLottery",
      "outputs": [],
      "stateMutability": "payable",
      "type": "function"
    },
    {
      "inputs": [],
      "name": "getAllLotteryIds",
      "outputs": [
        {
          "internalType": "uint256[]",
          "name": "",
          "type": "uint256[]"
        }
      ],
      "stateMutability": "view",
      "type": "function"
    },
    {
      "inputs": [
        {
          "internalType": "uint256",
          "name": "_lotteryId",
          "type": "uint256"
        }
      ],
      "name": "getLotteryDetails",
      "outputs": [
        {
          "internalType": "uint256",
          "name": "",
          "type": "uint256"
        },
        {
          "internalType": "uint256",
          "name": "",
          "type": "uint256"
        },
        {
          "internalType": "uint256",
          "name": "",
          "type": "uint256"
        },
        {
          "internalType": "address[]",
          "name": "",
          "type": "address[]"
        },
        {
          "internalType": "address",
          "name": "",
          "type": "address"
        },
        {
          "internalType": "bool",
          "name": "",
          "type": "bool"
        }
      ],
      "stateMutability": "view",
      "type": "function"
    },
    {
      "inputs": [
        {
          "internalType": "address[]",
          "name": "_p",
          "type": "address[]"
        },
        {
          "internalType": "address",
          "name": "_a",
          "type": "address"
        }
      ],
      "name": "isPresent",
      "outputs": [
        {
          "internalType": "bool",
          "name": "",
          "type": "bool"
        }
      ],
      "stateMutability": "pure",
      "type": "function"
    },
    {
      "inputs": [],
      "name": "lotteryManager",
      "outputs": [
        {
          "internalType": "address",
          "name": "",
          "type": "address"
        }
      ],
      "stateMutability": "view",
      "type": "function"
    },
    {
      "inputs": [
        {
          "internalType": "uint256",
          "name": "_lotteryId",
          "type": "uint256"
        }
      ],
      "name": "pickWinner",
      "outputs": [],
      "stateMutability": "nonpayable",
      "type": "function"
    },
    {
      "inputs": [
        {
          "internalType": "uint256",
          "name": "requestId",
          "type": "uint256"
        },
        {
          "internalType": "uint256[]",
          "name": "randomWords",
          "type": "uint256[]"
        }
      ],
      "name": "rawFulfillRandomWords",
      "outputs": [],
      "stateMutability": "nonpayable",
      "type": "function"
    },
    {
      "inputs": [],
      "name": "s_requestId",
      "outputs": [
        {
          "internalType": "uint256",
          "name": "",
          "type": "uint256"
        }
      ],
      "stateMutability": "view",
      "type": "function"
    },
    {
      "inputs": [],
      "name": "startLottery",
      "outputs": [],
      "stateMutability": "payable",
      "type": "function"
    },
    {
      "inputs": [],
      "name": "totalAllowedPlayers",
      "outputs": [
        {
          "internalType": "uint256",
          "name": "",
          "type": "uint256"
        }
      ],
      "stateMutability": "view",
      "type": "function"
    }
  ],
  "transactionHash": "0xd3786519c6447ae29bbe6054289d6d9e50bb4b3d7f762f9b52bc8ea8a80fae09",
  "args": [
    "0xd89b2bf150e3b9e13446986e571fb9cab24b13cea0a43ea20a6049a85cc807cc",
    "460",
    "0x6168499c0cFfCaCD319c818142124B7A15E857ab",
    "0x01BE23585060835E02B77ef475b0Cc51aA1e0709",
    "0x0161e5782C1272a82A7f3d101446F01d3283BFbB"
  ],
  "numDeployments": 1,
  "solcInputHash": "033cbaa06861e810303b377c8b26c3ba",
  "bytecode": "0x6101006040526005600455600361ffff1660c09061ffff16815250620186a063ffffffff1660e09063ffffffff168152503480156200003d57600080fd5b50604051620021cb380380620021cb8339818101604052810190620000639190620002e1565b828073ffffffffffffffffffffffffffffffffffffffff1660808173ffffffffffffffffffffffffffffffffffffffff168152505050620000b06003620001e160201b62000e441760201c565b33600560006101000a81548173ffffffffffffffffffffffffffffffffffffffff021916908373ffffffffffffffffffffffffffffffffffffffff160217905550826000806101000a81548173ffffffffffffffffffffffffffffffffffffffff021916908373ffffffffffffffffffffffffffffffffffffffff16021790555081600160006101000a81548173ffffffffffffffffffffffffffffffffffffffff021916908373ffffffffffffffffffffffffffffffffffffffff1602179055508367ffffffffffffffff1660a08167ffffffffffffffff16815250508460078190555080600260006101000a81548173ffffffffffffffffffffffffffffffffffffffff021916908373ffffffffffffffffffffffffffffffffffffffff160217905550505050505062000369565b6001816000016000828254019250508190555050565b600080fd5b6000819050919050565b6200021181620001fc565b81146200021d57600080fd5b50565b600081519050620002318162000206565b92915050565b600067ffffffffffffffff82169050919050565b620002568162000237565b81146200026257600080fd5b50565b60008151905062000276816200024b565b92915050565b600073ffffffffffffffffffffffffffffffffffffffff82169050919050565b6000620002a9826200027c565b9050919050565b620002bb816200029c565b8114620002c757600080fd5b50565b600081519050620002db81620002b0565b92915050565b600080600080600060a086880312156200030057620002ff620001f7565b5b6000620003108882890162000220565b9550506020620003238882890162000265565b94505060406200033688828901620002ca565b93505060606200034988828901620002ca565b92505060806200035c88828901620002ca565b9150509295509295909350565b60805160a05160c05160e051611e21620003aa6000396000610d6001526000610d3f01526000610d1e0152600081816103aa01526103fe0152611e216000f3fe6080604052600436106100915760003560e01c80634f989520116100595780634f989520146101525780636cc699971461017d578063e00ccfbc146101a8578063e89e106a146101e5578063f737d21d1461021057610091565b806306b0e34414610096578063160344e2146100c15780631fe543e3146100cb5780633677bc07146100f45780633fd4309814610136575b600080fd5b3480156100a257600080fd5b506100ab610239565b6040516100b891906110ea565b60405180910390f35b6100c961023f565b005b3480156100d757600080fd5b506100f260048036038101906100ed919061129e565b6103a8565b005b34801561010057600080fd5b5061011b600480360381019061011691906112fa565b610468565b60405161012d96959493929190611441565b60405180910390f35b610150600480360381019061014b91906112fa565b610528565b005b34801561015e57600080fd5b506101676107b3565b60405161017491906114a9565b60405180910390f35b34801561018957600080fd5b506101926107d9565b60405161019f9190611582565b60405180910390f35b3480156101b457600080fd5b506101cf60048036038101906101ca9190611693565b610876565b6040516101dc91906116ef565b60405180910390f35b3480156101f157600080fd5b506101fa6108fe565b60405161020791906110ea565b60405180910390f35b34801561021c57600080fd5b50610237600480360381019061023291906112fa565b610904565b005b60045481565b600560009054906101000a900473ffffffffffffffffffffffffffffffffffffffff1673ffffffffffffffffffffffffffffffffffffffff163373ffffffffffffffffffffffffffffffffffffffff16146102c6576040517f4150155300000000000000000000000000000000000000000000000000000000815260040160405180910390fd5b600260009054906101000a900473ffffffffffffffffffffffffffffffffffffffff1673ffffffffffffffffffffffffffffffffffffffff1663ed424b4361030e6003610e5a565b6040518263ffffffff1660e01b815260040161032a91906110ea565b600060405180830381600087803b15801561034457600080fd5b505af1158015610358573d6000803e3d6000fd5b505050506103666003610e44565b7f9e0023bebcc752baaa41057318405b5a6a8e9c6372b519717cfdf238e5caa7956103916003610e5a565b60405161039e91906110ea565b60405180910390a1565b7f000000000000000000000000000000000000000000000000000000000000000073ffffffffffffffffffffffffffffffffffffffff163373ffffffffffffffffffffffffffffffffffffffff161461045a57337f00000000000000000000000000000000000000000000000000000000000000006040517f1cf993f400000000000000000000000000000000000000000000000000000000815260040161045192919061170a565b60405180910390fd5b6104648282610e68565b5050565b60008060006060600080600260009054906101000a900473ffffffffffffffffffffffffffffffffffffffff1673ffffffffffffffffffffffffffffffffffffffff166392e845f6886040518263ffffffff1660e01b81526004016104cd91906110ea565b600060405180830381865afa1580156104ea573d6000803e3d6000fd5b505050506040513d6000823e3d601f19601f820116820180604052508101906105139190611820565b95509550955095509550955091939550919395565b600080600080600080600260009054906101000a900473ffffffffffffffffffffffffffffffffffffffff1673ffffffffffffffffffffffffffffffffffffffff166392e845f6886040518263ffffffff1660e01b815260040161058c91906110ea565b600060405180830381865afa1580156105a9573d6000803e3d6000fd5b505050506040513d6000823e3d601f19601f820116820180604052508101906105d29190611820565b9550955095509550955095506105e88333610876565b1561061f576040517f1db2468b00000000000000000000000000000000000000000000000000000000815260040160405180910390fd5b8015610657576040517fc89f1e0800000000000000000000000000000000000000000000000000000000815260040160405180910390fd5b600454835110610693576040517f8d671d0d00000000000000000000000000000000000000000000000000000000815260040160405180910390fd5b843410156106cd576040517f3c1d3de600000000000000000000000000000000000000000000000000000000815260040160405180910390fd5b600034856106db91906118f8565b9050600260009054906101000a900473ffffffffffffffffffffffffffffffffffffffff1673ffffffffffffffffffffffffffffffffffffffff1663ef037c338983336040518463ffffffff1660e01b815260040161073c9392919061194e565b600060405180830381600087803b15801561075657600080fd5b505af115801561076a573d6000803e3d6000fd5b505050507f5dac43247c7247837bb97f4140d16d266918ddaa501aa7780cb7f1a9009a72c68833836040516107a193929190611985565b60405180910390a15050505050505050565b600560009054906101000a900473ffffffffffffffffffffffffffffffffffffffff1681565b6060600260009054906101000a900473ffffffffffffffffffffffffffffffffffffffff1673ffffffffffffffffffffffffffffffffffffffff16636cc699976040518163ffffffff1660e01b8152600401600060405180830381865afa158015610848573d6000803e3d6000fd5b505050506040513d6000823e3d601f19601f820116820180604052508101906108719190611a53565b905090565b600080600090505b83518110156108f2578273ffffffffffffffffffffffffffffffffffffffff168482815181106108b1576108b0611a9c565b5b602002602001015173ffffffffffffffffffffffffffffffffffffffff1614156108df5760019150506108f8565b80806108ea90611acb565b91505061087e565b50600090505b92915050565b60085481565b600560009054906101000a900473ffffffffffffffffffffffffffffffffffffffff1673ffffffffffffffffffffffffffffffffffffffff163373ffffffffffffffffffffffffffffffffffffffff161461098b576040517f4150155300000000000000000000000000000000000000000000000000000000815260040160405180910390fd5b600260009054906101000a900473ffffffffffffffffffffffffffffffffffffffff1673ffffffffffffffffffffffffffffffffffffffff1663cc251829826040518263ffffffff1660e01b81526004016109e691906110ea565b602060405180830381865afa158015610a03573d6000803e3d6000fd5b505050506040513d601f19601f82011682018060405250810190610a279190611b14565b15610a5e576040517f586abc5a00000000000000000000000000000000000000000000000000000000815260040160405180910390fd5b6000600260009054906101000a900473ffffffffffffffffffffffffffffffffffffffff1673ffffffffffffffffffffffffffffffffffffffff1663a646daf6836040518263ffffffff1660e01b8152600401610abb91906110ea565b600060405180830381865afa158015610ad8573d6000803e3d6000fd5b505050506040513d6000823e3d601f19601f82011682018060405250810190610b019190611b41565b9050600181511415610cdd57600073ffffffffffffffffffffffffffffffffffffffff1681600081518110610b3957610b38611a9c565b5b602002602001015173ffffffffffffffffffffffffffffffffffffffff161415610b8f576040517f6abe6f6b00000000000000000000000000000000000000000000000000000000815260040160405180910390fd5b600260009054906101000a900473ffffffffffffffffffffffffffffffffffffffff1673ffffffffffffffffffffffffffffffffffffffff1663a5676fd88360006040518363ffffffff1660e01b8152600401610bed929190611bcf565b600060405180830381600087803b158015610c0757600080fd5b505af1158015610c1b573d6000803e3d6000fd5b5050505080600081518110610c3357610c32611a9c565b5b602002602001015173ffffffffffffffffffffffffffffffffffffffff166108fc479081150290604051600060405180830381858888f19350505050158015610c80573d6000803e3d6000fd5b507f8981fdd74bd05da9ef8f2aeb472f541ee871b1e9e3908c19d01a9bf51ce5f7ab60008383600081518110610cb957610cb8611a9c565b5b6020026020010151604051610cd093929190611bf8565b60405180910390a1610e40565b60008054906101000a900473ffffffffffffffffffffffffffffffffffffffff1673ffffffffffffffffffffffffffffffffffffffff16635d3b1d306007547f00000000000000000000000000000000000000000000000000000000000000007f00000000000000000000000000000000000000000000000000000000000000007f000000000000000000000000000000000000000000000000000000000000000060016040518663ffffffff1660e01b8152600401610da1959493929190611ce2565b6020604051808303816000875af1158015610dc0573d6000803e3d6000fd5b505050506040513d601f19601f82011682018060405250810190610de49190611d35565b60088190555081600660006008548152602001908152602001600020819055507f3d94fecedaa4f90b8bd459797adb95f5bb11426025c5541390d9ccc1ad1b60a160085483604051610e37929190611d62565b60405180910390a15b5050565b6001816000016000828254019250508190555050565b600081600001549050919050565b6000600660008481526020019081526020016000205490506000600260009054906101000a900473ffffffffffffffffffffffffffffffffffffffff1673ffffffffffffffffffffffffffffffffffffffff1663a646daf6836040518263ffffffff1660e01b8152600401610edd91906110ea565b600060405180830381865afa158015610efa573d6000803e3d6000fd5b505050506040513d6000823e3d601f19601f82011682018060405250810190610f239190611b41565b90506000610f56825185600081518110610f4057610f3f611a9c565b5b60200260200101516110bb90919063ffffffff16565b9050600260009054906101000a900473ffffffffffffffffffffffffffffffffffffffff1673ffffffffffffffffffffffffffffffffffffffff1663a5676fd884836040518363ffffffff1660e01b8152600401610fb5929190611d62565b600060405180830381600087803b158015610fcf57600080fd5b505af1158015610fe3573d6000803e3d6000fd5b50505050600660008681526020019081526020016000206000905581818151811061101157611010611a9c565b5b602002602001015173ffffffffffffffffffffffffffffffffffffffff166108fc479081150290604051600060405180830381858888f1935050505015801561105e573d6000803e3d6000fd5b507f8981fdd74bd05da9ef8f2aeb472f541ee871b1e9e3908c19d01a9bf51ce5f7ab858484848151811061109557611094611a9c565b5b60200260200101516040516110ac9392919061194e565b60405180910390a15050505050565b600081836110c99190611dba565b905092915050565b6000819050919050565b6110e4816110d1565b82525050565b60006020820190506110ff60008301846110db565b92915050565b6000604051905090565b600080fd5b600080fd5b611122816110d1565b811461112d57600080fd5b50565b60008135905061113f81611119565b92915050565b600080fd5b6000601f19601f8301169050919050565b7f4e487b7100000000000000000000000000000000000000000000000000000000600052604160045260246000fd5b6111938261114a565b810181811067ffffffffffffffff821117156111b2576111b161115b565b5b80604052505050565b60006111c5611105565b90506111d1828261118a565b919050565b600067ffffffffffffffff8211156111f1576111f061115b565b5b602082029050602081019050919050565b600080fd5b600061121a611215846111d6565b6111bb565b9050808382526020820190506020840283018581111561123d5761123c611202565b5b835b8181101561126657806112528882611130565b84526020840193505060208101905061123f565b5050509392505050565b600082601f83011261128557611284611145565b5b8135611295848260208601611207565b91505092915050565b600080604083850312156112b5576112b461110f565b5b60006112c385828601611130565b925050602083013567ffffffffffffffff8111156112e4576112e3611114565b5b6112f085828601611270565b9150509250929050565b6000602082840312156113105761130f61110f565b5b600061131e84828501611130565b91505092915050565b600081519050919050565b600082825260208201905092915050565b6000819050602082019050919050565b600073ffffffffffffffffffffffffffffffffffffffff82169050919050565b600061137e82611353565b9050919050565b61138e81611373565b82525050565b60006113a08383611385565b60208301905092915050565b6000602082019050919050565b60006113c482611327565b6113ce8185611332565b93506113d983611343565b8060005b8381101561140a5781516113f18882611394565b97506113fc836113ac565b9250506001810190506113dd565b5085935050505092915050565b61142081611373565b82525050565b60008115159050919050565b61143b81611426565b82525050565b600060c08201905061145660008301896110db565b61146360208301886110db565b61147060408301876110db565b818103606083015261148281866113b9565b90506114916080830185611417565b61149e60a0830184611432565b979650505050505050565b60006020820190506114be6000830184611417565b92915050565b600081519050919050565b600082825260208201905092915050565b6000819050602082019050919050565b6114f9816110d1565b82525050565b600061150b83836114f0565b60208301905092915050565b6000602082019050919050565b600061152f826114c4565b61153981856114cf565b9350611544836114e0565b8060005b8381101561157557815161155c88826114ff565b975061156783611517565b925050600181019050611548565b5085935050505092915050565b6000602082019050818103600083015261159c8184611524565b905092915050565b600067ffffffffffffffff8211156115bf576115be61115b565b5b602082029050602081019050919050565b6115d981611373565b81146115e457600080fd5b50565b6000813590506115f6816115d0565b92915050565b600061160f61160a846115a4565b6111bb565b9050808382526020820190506020840283018581111561163257611631611202565b5b835b8181101561165b578061164788826115e7565b845260208401935050602081019050611634565b5050509392505050565b600082601f83011261167a57611679611145565b5b813561168a8482602086016115fc565b91505092915050565b600080604083850312156116aa576116a961110f565b5b600083013567ffffffffffffffff8111156116c8576116c7611114565b5b6116d485828601611665565b92505060206116e5858286016115e7565b9150509250929050565b60006020820190506117046000830184611432565b92915050565b600060408201905061171f6000830185611417565b61172c6020830184611417565b9392505050565b60008151905061174281611119565b92915050565b600081519050611757816115d0565b92915050565b600061177061176b846115a4565b6111bb565b9050808382526020820190506020840283018581111561179357611792611202565b5b835b818110156117bc57806117a88882611748565b845260208401935050602081019050611795565b5050509392505050565b600082601f8301126117db576117da611145565b5b81516117eb84826020860161175d565b91505092915050565b6117fd81611426565b811461180857600080fd5b50565b60008151905061181a816117f4565b92915050565b60008060008060008060c0878903121561183d5761183c61110f565b5b600061184b89828a01611733565b965050602061185c89828a01611733565b955050604061186d89828a01611733565b945050606087015167ffffffffffffffff81111561188e5761188d611114565b5b61189a89828a016117c6565b93505060806118ab89828a01611748565b92505060a06118bc89828a0161180b565b9150509295509295509295565b7f4e487b7100000000000000000000000000000000000000000000000000000000600052601160045260246000fd5b6000611903826110d1565b915061190e836110d1565b9250827fffffffffffffffffffffffffffffffffffffffffffffffffffffffffffffffff03821115611943576119426118c9565b5b828201905092915050565b600060608201905061196360008301866110db565b61197060208301856110db565b61197d6040830184611417565b949350505050565b600060608201905061199a60008301866110db565b6119a76020830185611417565b6119b460408301846110db565b949350505050565b60006119cf6119ca846111d6565b6111bb565b905080838252602082019050602084028301858111156119f2576119f1611202565b5b835b81811015611a1b5780611a078882611733565b8452602084019350506020810190506119f4565b5050509392505050565b600082601f830112611a3a57611a39611145565b5b8151611a4a8482602086016119bc565b91505092915050565b600060208284031215611a6957611a6861110f565b5b600082015167ffffffffffffffff811115611a8757611a86611114565b5b611a9384828501611a25565b91505092915050565b7f4e487b7100000000000000000000000000000000000000000000000000000000600052603260045260246000fd5b6000611ad6826110d1565b91507fffffffffffffffffffffffffffffffffffffffffffffffffffffffffffffffff821415611b0957611b086118c9565b5b600182019050919050565b600060208284031215611b2a57611b2961110f565b5b6000611b388482850161180b565b91505092915050565b600060208284031215611b5757611b5661110f565b5b600082015167ffffffffffffffff811115611b7557611b74611114565b5b611b81848285016117c6565b91505092915050565b6000819050919050565b6000819050919050565b6000611bb9611bb4611baf84611b8a565b611b94565b6110d1565b9050919050565b611bc981611b9e565b82525050565b6000604082019050611be460008301856110db565b611bf16020830184611bc0565b9392505050565b6000606082019050611c0d6000830186611bc0565b611c1a60208301856110db565b611c276040830184611417565b949350505050565b6000819050919050565b611c4281611c2f565b82525050565b600067ffffffffffffffff82169050919050565b611c6581611c48565b82525050565b600061ffff82169050919050565b611c8281611c6b565b82525050565b600063ffffffff82169050919050565b611ca181611c88565b82525050565b6000819050919050565b6000611ccc611cc7611cc284611ca7565b611b94565b611c88565b9050919050565b611cdc81611cb1565b82525050565b600060a082019050611cf76000830188611c39565b611d046020830187611c5c565b611d116040830186611c79565b611d1e6060830185611c98565b611d2b6080830184611cd3565b9695505050505050565b600060208284031215611d4b57611d4a61110f565b5b6000611d5984828501611733565b91505092915050565b6000604082019050611d7760008301856110db565b611d8460208301846110db565b9392505050565b7f4e487b7100000000000000000000000000000000000000000000000000000000600052601260045260246000fd5b6000611dc5826110d1565b9150611dd0836110d1565b925082611de057611ddf611d8b565b5b82820690509291505056fea2646970667358221220485d39639b0f1b31c8aea79e6571ff92726491488351a301aa61dff0bea4250f64736f6c634300080b0033",
  "devdoc": {
    "kind": "dev",
    "methods": {},
    "version": 1
  },
  "userdoc": {
    "kind": "user",
    "methods": {},
    "version": 1
  },
  "storageLayout": {
    "storage": [
      {
        "astId": 640,
        "contract": "contracts/Lottery.sol:Lottery",
        "label": "COORDINATOR",
        "offset": 0,
        "slot": "0",
        "type": "t_contract(VRFCoordinatorV2Interface)241"
      },
      {
        "astId": 643,
        "contract": "contracts/Lottery.sol:Lottery",
        "label": "LINKTOKEN",
        "offset": 0,
        "slot": "1",
        "type": "t_contract(LinkTokenInterface)152"
      },
      {
        "astId": 646,
        "contract": "contracts/Lottery.sol:Lottery",
        "label": "LOTTERY_DATA",
        "offset": 0,
        "slot": "2",
        "type": "t_contract(LotteryData)1481"
      },
      {
        "astId": 656,
        "contract": "contracts/Lottery.sol:Lottery",
        "label": "lotteryId",
        "offset": 0,
        "slot": "3",
        "type": "t_struct(Counter)247_storage"
      },
      {
        "astId": 659,
        "contract": "contracts/Lottery.sol:Lottery",
        "label": "totalAllowedPlayers",
        "offset": 0,
        "slot": "4",
        "type": "t_uint256"
      },
      {
        "astId": 661,
        "contract": "contracts/Lottery.sol:Lottery",
        "label": "lotteryManager",
        "offset": 0,
        "slot": "5",
        "type": "t_address"
      },
      {
        "astId": 665,
        "contract": "contracts/Lottery.sol:Lottery",
        "label": "lotteryRandomnessRequest",
        "offset": 0,
        "slot": "6",
        "type": "t_mapping(t_uint256,t_uint256)"
      },
      {
        "astId": 667,
        "contract": "contracts/Lottery.sol:Lottery",
        "label": "keyHash",
        "offset": 0,
        "slot": "7",
        "type": "t_bytes32"
      },
      {
        "astId": 677,
        "contract": "contracts/Lottery.sol:Lottery",
        "label": "s_requestId",
        "offset": 0,
        "slot": "8",
        "type": "t_uint256"
      }
    ],
    "types": {
      "t_address": {
        "encoding": "inplace",
        "label": "address",
        "numberOfBytes": "20"
      },
      "t_bytes32": {
        "encoding": "inplace",
        "label": "bytes32",
        "numberOfBytes": "32"
      },
      "t_contract(LinkTokenInterface)152": {
        "encoding": "inplace",
        "label": "contract LinkTokenInterface",
        "numberOfBytes": "20"
      },
      "t_contract(LotteryData)1481": {
        "encoding": "inplace",
        "label": "contract LotteryData",
        "numberOfBytes": "20"
      },
      "t_contract(VRFCoordinatorV2Interface)241": {
        "encoding": "inplace",
        "label": "contract VRFCoordinatorV2Interface",
        "numberOfBytes": "20"
      },
      "t_mapping(t_uint256,t_uint256)": {
        "encoding": "mapping",
        "key": "t_uint256",
        "label": "mapping(uint256 => uint256)",
        "numberOfBytes": "32",
        "value": "t_uint256"
      },
      "t_struct(Counter)247_storage": {
        "encoding": "inplace",
        "label": "struct Counters.Counter",
        "members": [
          {
            "astId": 246,
            "contract": "contracts/Lottery.sol:Lottery",
            "label": "_value",
            "offset": 0,
            "slot": "0",
            "type": "t_uint256"
          }
        ],
        "numberOfBytes": "32"
      },
      "t_uint256": {
        "encoding": "inplace",
        "label": "uint256",
        "numberOfBytes": "32"
      }
    }
  }
}